:020000040800F2
:100000000050002061020008FD0100080502000800
:100010000D020008150200081D0200080000000083
:1000200000000000000000000000000025020008A1
:1000300031020008000000003D02000849020008EB
:10004000A9020008A9020008A9020008A9020008E4
:10005000A9020008A9020008A9020008A9020008D4
:10006000A9020008A9020008A9020008A9020008C4
:10007000A9020008A9020008A9020008A9020008B4
:10008000A9020008A9020008A9020008A9020008A4
:10009000A9020008A9020008A9020008A902000894
:1000A000A9020008A9020008A9020008A902000884
:1000B000A9020008A9020008A9020008A902000874
:1000C000A9020008A9020008A9020008A902000864
:1000D000A9020008A9020008A9020008A902000854
:1000E000A9020008A9020008A902000800000000F7
:1000F0000000000000000000000000000000000000
:0C01000000000000000000005FF808F1A3
:10010C0010B5054C237833B9044B13B10448AFF345
:10011C0000800123237010BD0C00002000000000A3
:10012C001803000808B5034B1BB103490348AFF390
:10013C00008008BD0000000010000020180300081B
:10014C0080B485B000AF78600023FB6003E000BF93
:10015C00FB680133FB607B684FF4487202FB03F3CE
:10016C00FA689A42F3DB00BF00BF1437BD4680BC6F
:10017C007047000080B582B000AF1A4B9B69194ADA
:10018C0043F004039361184B4FF022321A600023A2
:10019C007B600EE0144B0022DA60144A7B68134437
:1001AC001A78114BDA60C820FFF7CAFF7B6801335D
:1001BC007B607B68092BEDDD09233B600EE00A4B6D
:1001CC000022DA60094A3B6813441A78064BDA605D
:1001DC00C820FFF7B5FF3B68013B3B603B68002B39
:1001EC00EDDAD4E7001002400008014000000020C6
:1001FC0080B400AF00BFFDE780B400AF00BFFDE7E7
:10020C0080B400AF00BFFDE780B400AF00BFFDE7D6
:10021C0080B400AF00BFFDE780B400AF00BFBD46A7
:10022C0080BC704780B400AF00BFBD4680BC704737
:10023C0080B400AF00BFBD4680BC704780B500AF36
:10024C0000F02EF800BF80BD80B400AF00BFBD46EB
:10025C0080BC7047FFF7F8FF0B480C490C4A002391
:10026C0002E0D458C4500433C4188C42F9D3094A60
:10027C00094C002301E013600432A242FBD300F0CE
:10028C0021F8FFF777FF7047000000200C000020DA
:10029C00380300080C0000202C000020FEE70000B2
:1002AC0080B400AF054B1B781A46054B1B681344F2
:1002BC00034A136000BFBD4680BC70470A00002093
:1002CC002800002070B500260C4D0D4C641BA410AA
:1002DC00A64209D100F01AF800260A4D0A4C641BFC
:1002EC00A410A64205D170BD55F8043B98470136C1
:1002FC00EEE755F8043B98470136F2E73003000867
:10030C00300300083003000834030008F8B500BFC0
:10031C00F8BC08BC9E467047F8B500BFF8BC08BCDA
:04032C009E46704732
:04033000310100088F
:040334000D010008AF
:0C0338003F065B4F666D7D077F6F010084
:04000005080002618C
:00000001FF
